{
  "_format": "hh-sol-artifact-1",
  "contractName": "ComposableImage",
  "sourceName": "contracts/ComposableImage.sol",
  "abi": [
    {
      "inputs": [],
      "stateMutability": "nonpayable",
      "type": "constructor"
    },
    {
      "anonymous": false,
      "inputs": [
        {
          "indexed": true,
          "internalType": "address",
          "name": "owner",
          "type": "address"
        },
        {
          "indexed": true,
          "internalType": "address",
          "name": "approved",
          "type": "address"
        },
        {
          "indexed": true,
          "internalType": "uint256",
          "name": "tokenId",
          "type": "uint256"
        }
      ],
      "name": "Approval",
      "type": "event"
    },
    {
      "anonymous": false,
      "inputs": [
        {
          "indexed": true,
          "internalType": "address",
          "name": "owner",
          "type": "address"
        },
        {
          "indexed": true,
          "internalType": "address",
          "name": "operator",
          "type": "address"
        },
        {
          "indexed": false,
          "internalType": "bool",
          "name": "approved",
          "type": "bool"
        }
      ],
      "name": "ApprovalForAll",
      "type": "event"
    },
    {
      "anonymous": false,
      "inputs": [
        {
          "indexed": false,
          "internalType": "uint256",
          "name": "tokenId",
          "type": "uint256"
        },
        {
          "indexed": false,
          "internalType": "uint256[]",
          "name": "componentIds",
          "type": "uint256[]"
        },
        {
          "indexed": false,
          "internalType": "uint256",
          "name": "backgroundId",
          "type": "uint256"
        }
      ],
      "name": "ImageComposed",
      "type": "event"
    },
    {
      "anonymous": false,
      "inputs": [
        {
          "indexed": true,
          "internalType": "address",
          "name": "previousOwner",
          "type": "address"
        },
        {
          "indexed": true,
          "internalType": "address",
          "name": "newOwner",
          "type": "address"
        }
      ],
      "name": "OwnershipTransferred",
      "type": "event"
    },
    {
      "anonymous": false,
      "inputs": [
        {
          "indexed": true,
          "internalType": "address",
          "name": "from",
          "type": "address"
        },
        {
          "indexed": true,
          "internalType": "address",
          "name": "to",
          "type": "address"
        },
        {
          "indexed": true,
          "internalType": "uint256",
          "name": "tokenId",
          "type": "uint256"
        }
      ],
      "name": "Transfer",
      "type": "event"
    },
    {
      "inputs": [
        {
          "internalType": "address",
          "name": "to",
          "type": "address"
        },
        {
          "internalType": "uint256",
          "name": "tokenId",
          "type": "uint256"
        }
      ],
      "name": "approve",
      "outputs": [],
      "stateMutability": "nonpayable",
      "type": "function"
    },
    {
      "inputs": [
        {
          "internalType": "uint256",
          "name": "",
          "type": "uint256"
        }
      ],
      "name": "backgrounds",
      "outputs": [
        {
          "internalType": "uint256",
          "name": "componentId",
          "type": "uint256"
        },
        {
          "internalType": "string",
          "name": "uri",
          "type": "string"
        },
        {
          "internalType": "bool",
          "name": "exists",
          "type": "bool"
        }
      ],
      "stateMutability": "view",
      "type": "function"
    },
    {
      "inputs": [
        {
          "internalType": "address",
          "name": "owner",
          "type": "address"
        }
      ],
      "name": "balanceOf",
      "outputs": [
        {
          "internalType": "uint256",
          "name": "",
          "type": "uint256"
        }
      ],
      "stateMutability": "view",
      "type": "function"
    },
    {
      "inputs": [
        {
          "internalType": "uint256[]",
          "name": "componentIds",
          "type": "uint256[]"
        },
        {
          "internalType": "uint256",
          "name": "backgroundId",
          "type": "uint256"
        }
      ],
      "name": "composeImage",
      "outputs": [
        {
          "internalType": "uint256",
          "name": "",
          "type": "uint256"
        }
      ],
      "stateMutability": "nonpayable",
      "type": "function"
    },
    {
      "inputs": [
        {
          "internalType": "uint256",
          "name": "",
          "type": "uint256"
        }
      ],
      "name": "composedImages",
      "outputs": [
        {
          "internalType": "uint256",
          "name": "backgroundId",
          "type": "uint256"
        }
      ],
      "stateMutability": "view",
      "type": "function"
    },
    {
      "inputs": [
        {
          "internalType": "string",
          "name": "uri",
          "type": "string"
        }
      ],
      "name": "createBackground",
      "outputs": [
        {
          "internalType": "uint256",
          "name": "",
          "type": "uint256"
        }
      ],
      "stateMutability": "nonpayable",
      "type": "function"
    },
    {
      "inputs": [
        {
          "internalType": "string",
          "name": "uri",
          "type": "string"
        }
      ],
      "name": "createImageComponent",
      "outputs": [
        {
          "internalType": "uint256",
          "name": "",
          "type": "uint256"
        }
      ],
      "stateMutability": "nonpayable",
      "type": "function"
    },
    {
      "inputs": [
        {
          "internalType": "uint256",
          "name": "tokenId",
          "type": "uint256"
        }
      ],
      "name": "getApproved",
      "outputs": [
        {
          "internalType": "address",
          "name": "",
          "type": "address"
        }
      ],
      "stateMutability": "view",
      "type": "function"
    },
    {
      "inputs": [
        {
          "internalType": "uint256",
          "name": "tokenId",
          "type": "uint256"
        }
      ],
      "name": "getComposedImage",
      "outputs": [
        {
          "internalType": "uint256[]",
          "name": "",
          "type": "uint256[]"
        },
        {
          "internalType": "uint256",
          "name": "",
          "type": "uint256"
        }
      ],
      "stateMutability": "view",
      "type": "function"
    },
    {
      "inputs": [
        {
          "internalType": "uint256",
          "name": "",
          "type": "uint256"
        }
      ],
      "name": "imageComponents",
      "outputs": [
        {
          "internalType": "uint256",
          "name": "componentId",
          "type": "uint256"
        },
        {
          "internalType": "string",
          "name": "uri",
          "type": "string"
        },
        {
          "internalType": "bool",
          "name": "exists",
          "type": "bool"
        }
      ],
      "stateMutability": "view",
      "type": "function"
    },
    {
      "inputs": [
        {
          "internalType": "address",
          "name": "owner",
          "type": "address"
        },
        {
          "internalType": "address",
          "name": "operator",
          "type": "address"
        }
      ],
      "name": "isApprovedForAll",
      "outputs": [
        {
          "internalType": "bool",
          "name": "",
          "type": "bool"
        }
      ],
      "stateMutability": "view",
      "type": "function"
    },
    {
      "inputs": [],
      "name": "name",
      "outputs": [
        {
          "internalType": "string",
          "name": "",
          "type": "string"
        }
      ],
      "stateMutability": "view",
      "type": "function"
    },
    {
      "inputs": [],
      "name": "owner",
      "outputs": [
        {
          "internalType": "address",
          "name": "",
          "type": "address"
        }
      ],
      "stateMutability": "view",
      "type": "function"
    },
    {
      "inputs": [
        {
          "internalType": "uint256",
          "name": "tokenId",
          "type": "uint256"
        }
      ],
      "name": "ownerOf",
      "outputs": [
        {
          "internalType": "address",
          "name": "",
          "type": "address"
        }
      ],
      "stateMutability": "view",
      "type": "function"
    },
    {
      "inputs": [],
      "name": "renounceOwnership",
      "outputs": [],
      "stateMutability": "nonpayable",
      "type": "function"
    },
    {
      "inputs": [
        {
          "internalType": "address",
          "name": "from",
          "type": "address"
        },
        {
          "internalType": "address",
          "name": "to",
          "type": "address"
        },
        {
          "internalType": "uint256",
          "name": "tokenId",
          "type": "uint256"
        }
      ],
      "name": "safeTransferFrom",
      "outputs": [],
      "stateMutability": "nonpayable",
      "type": "function"
    },
    {
      "inputs": [
        {
          "internalType": "address",
          "name": "from",
          "type": "address"
        },
        {
          "internalType": "address",
          "name": "to",
          "type": "address"
        },
        {
          "internalType": "uint256",
          "name": "tokenId",
          "type": "uint256"
        },
        {
          "internalType": "bytes",
          "name": "data",
          "type": "bytes"
        }
      ],
      "name": "safeTransferFrom",
      "outputs": [],
      "stateMutability": "nonpayable",
      "type": "function"
    },
    {
      "inputs": [
        {
          "internalType": "address",
          "name": "operator",
          "type": "address"
        },
        {
          "internalType": "bool",
          "name": "approved",
          "type": "bool"
        }
      ],
      "name": "setApprovalForAll",
      "outputs": [],
      "stateMutability": "nonpayable",
      "type": "function"
    },
    {
      "inputs": [
        {
          "internalType": "bytes4",
          "name": "interfaceId",
          "type": "bytes4"
        }
      ],
      "name": "supportsInterface",
      "outputs": [
        {
          "internalType": "bool",
          "name": "",
          "type": "bool"
        }
      ],
      "stateMutability": "view",
      "type": "function"
    },
    {
      "inputs": [],
      "name": "symbol",
      "outputs": [
        {
          "internalType": "string",
          "name": "",
          "type": "string"
        }
      ],
      "stateMutability": "view",
      "type": "function"
    },
    {
      "inputs": [
        {
          "internalType": "uint256",
          "name": "tokenId",
          "type": "uint256"
        }
      ],
      "name": "tokenURI",
      "outputs": [
        {
          "internalType": "string",
          "name": "",
          "type": "string"
        }
      ],
      "stateMutability": "view",
      "type": "function"
    },
    {
      "inputs": [
        {
          "internalType": "address",
          "name": "from",
          "type": "address"
        },
        {
          "internalType": "address",
          "name": "to",
          "type": "address"
        },
        {
          "internalType": "uint256",
          "name": "tokenId",
          "type": "uint256"
        }
      ],
      "name": "transferFrom",
      "outputs": [],
      "stateMutability": "nonpayable",
      "type": "function"
    },
    {
      "inputs": [
        {
          "internalType": "address",
          "name": "newOwner",
          "type": "address"
        }
      ],
      "name": "transferOwnership",
      "outputs": [],
      "stateMutability": "nonpayable",
      "type": "function"
    },
    {
      "inputs": [
        {
          "internalType": "uint256",
          "name": "tokenId",
          "type": "uint256"
        },
        {
          "internalType": "uint256",
          "name": "newBackgroundId",
          "type": "uint256"
        }
      ],
      "name": "updateBackground",
      "outputs": [],
      "stateMutability": "nonpayable",
      "type": "function"
    }
  ],
  "bytecode": "0x60806040523480156200001157600080fd5b506040518060400160405280600f81526020017f436f6d706f7361626c65496d61676500000000000000000000000000000000008152506040518060400160405280600481526020017f43494d470000000000000000000000000000000000000000000000000000000081525081600090816200008f91906200043f565b508060019081620000a191906200043f565b505050620000c4620000b8620000e160201b60201c565b620000e960201b60201c565b620000db6007620001af60201b6200131e1760201c565b62000526565b600033905090565b6000600660009054906101000a900473ffffffffffffffffffffffffffffffffffffffff16905081600660006101000a81548173ffffffffffffffffffffffffffffffffffffffff021916908373ffffffffffffffffffffffffffffffffffffffff1602179055508173ffffffffffffffffffffffffffffffffffffffff168173ffffffffffffffffffffffffffffffffffffffff167f8be0079c531659141344cd1fd0a4f28419497f9722a3daafe3b4186f6b6457e060405160405180910390a35050565b6001816000016000828254019250508190555050565b600081519050919050565b7f4e487b7100000000000000000000000000000000000000000000000000000000600052604160045260246000fd5b7f4e487b7100000000000000000000000000000000000000000000000000000000600052602260045260246000fd5b600060028204905060018216806200024757607f821691505b6020821081036200025d576200025c620001ff565b5b50919050565b60008190508160005260206000209050919050565b60006020601f8301049050919050565b600082821b905092915050565b600060088302620002c77fffffffffffffffffffffffffffffffffffffffffffffffffffffffffffffffff8262000288565b620002d3868362000288565b95508019841693508086168417925050509392505050565b6000819050919050565b6000819050919050565b6000620003206200031a6200031484620002eb565b620002f5565b620002eb565b9050919050565b6000819050919050565b6200033c83620002ff565b620003546200034b8262000327565b84845462000295565b825550505050565b600090565b6200036b6200035c565b6200037881848462000331565b505050565b5b81811015620003a0576200039460008262000361565b6001810190506200037e565b5050565b601f821115620003ef57620003b98162000263565b620003c48462000278565b81016020851015620003d4578190505b620003ec620003e38562000278565b8301826200037d565b50505b505050565b600082821c905092915050565b60006200041460001984600802620003f4565b1980831691505092915050565b60006200042f838362000401565b9150826002028217905092915050565b6200044a82620001c5565b67ffffffffffffffff811115620004665762000465620001d0565b5b6200047282546200022e565b6200047f828285620003a4565b600060209050601f831160018114620004b75760008415620004a2578287015190505b620004ae858262000421565b8655506200051e565b601f198416620004c78662000263565b60005b82811015620004f157848901518255600182019150602085019450602081019050620004ca565b868310156200051157848901516200050d601f89168262000401565b8355505b6001600288020188555050505b505050505050565b613d1380620005366000396000f3fe608060405234801561001057600080fd5b50600436106101585760003560e01c80636ee8ca17116100c3578063a2d395281161007c578063a2d3952814610402578063b88d4fde14610432578063c87b56dd1461044e578063e985e9c51461047e578063eaf2a21d146104ae578063f2fde38b146104de57610158565b80636ee8ca171461033f57806370a0823114610370578063715018a6146103a05780638da5cb5b146103aa57806395d89b41146103c8578063a22cb465146103e657610158565b806312d635f61161011557806312d635f614610259578063218fe6d91461028b57806323b872dd146102a75780634186f4e9146102c357806342842e0e146102f35780636352211e1461030f57610158565b806301ffc9a71461015d57806304bde4dd1461018d57806306fdde03146101bf578063081812fc146101dd578063095ea7b31461020d5780630cd091dc14610229575b600080fd5b61017760048036038101906101729190612313565b6104fa565b604051610184919061235b565b60405180910390f35b6101a760048036038101906101a291906123ac565b6105dc565b6040516101b693929190612478565b60405180910390f35b6101c761069b565b6040516101d491906124b6565b60405180910390f35b6101f760048036038101906101f291906123ac565b61072d565b6040516102049190612519565b60405180910390f35b61022760048036038101906102229190612560565b610773565b005b610243600480360381019061023e91906126d5565b61088a565b604051610250919061271e565b60405180910390f35b610273600480360381019061026e91906123ac565b610929565b60405161028293929190612478565b60405180910390f35b6102a560048036038101906102a09190612739565b6109e8565b005b6102c160048036038101906102bc9190612779565b610ab1565b005b6102dd60048036038101906102d891906126d5565b610b11565b6040516102ea919061271e565b60405180910390f35b61030d60048036038101906103089190612779565b610bb0565b005b610329600480360381019061032491906123ac565b610bd0565b6040516103369190612519565b60405180910390f35b610359600480360381019061035491906123ac565b610c56565b60405161036792919061288a565b60405180910390f35b61038a600480360381019061038591906128ba565b610cd5565b604051610397919061271e565b60405180910390f35b6103a8610d8c565b005b6103b2610da0565b6040516103bf9190612519565b60405180910390f35b6103d0610dca565b6040516103dd91906124b6565b60405180910390f35b61040060048036038101906103fb9190612913565b610e5c565b005b61041c600480360381019061041791906123ac565b610e72565b604051610429919061271e565b60405180910390f35b61044c600480360381019061044791906129f4565b610e90565b005b610468600480360381019061046391906123ac565b610ef2565b60405161047591906124b6565b60405180910390f35b61049860048036038101906104939190612a77565b6110e9565b6040516104a5919061235b565b60405180910390f35b6104c860048036038101906104c39190612b7f565b61117d565b6040516104d5919061271e565b60405180910390f35b6104f860048036038101906104f391906128ba565b61129b565b005b60007f80ac58cd000000000000000000000000000000000000000000000000000000007bffffffffffffffffffffffffffffffffffffffffffffffffffffffff1916827bffffffffffffffffffffffffffffffffffffffffffffffffffffffff191614806105c557507f5b5e139f000000000000000000000000000000000000000000000000000000007bffffffffffffffffffffffffffffffffffffffffffffffffffffffff1916827bffffffffffffffffffffffffffffffffffffffffffffffffffffffff1916145b806105d557506105d482611334565b5b9050919050565b600a60205280600052604060002060009150905080600001549080600101805461060590612c0a565b80601f016020809104026020016040519081016040528092919081815260200182805461063190612c0a565b801561067e5780601f106106535761010080835404028352916020019161067e565b820191906000526020600020905b81548152906001019060200180831161066157829003601f168201915b5050505050908060020160009054906101000a900460ff16905083565b6060600080546106aa90612c0a565b80601f01602080910402602001604051908101604052809291908181526020018280546106d690612c0a565b80156107235780601f106106f857610100808354040283529160200191610723565b820191906000526020600020905b81548152906001019060200180831161070657829003601f168201915b5050505050905090565b60006107388261139e565b6004600083815260200190815260200160002060009054906101000a900473ffffffffffffffffffffffffffffffffffffffff169050919050565b600061077e82610bd0565b90508073ffffffffffffffffffffffffffffffffffffffff168373ffffffffffffffffffffffffffffffffffffffff16036107ee576040517f08c379a00000000000000000000000000000000000000000000000000000000081526004016107e590612cad565b60405180910390fd5b8073ffffffffffffffffffffffffffffffffffffffff1661080d6113e9565b73ffffffffffffffffffffffffffffffffffffffff16148061083c575061083b816108366113e9565b6110e9565b5b61087b576040517f08c379a000000000000000000000000000000000000000000000000000000000815260040161087290612d3f565b60405180910390fd5b61088583836113f1565b505050565b60006108946114aa565b60006108a06007611528565b90506108ac600761131e565b604051806060016040528082815260200184815260200160011515815250600a60008381526020019081526020016000206000820151816000015560208201518160010190816108fc9190612f0b565b5060408201518160020160006101000a81548160ff02191690831515021790555090505080915050919050565b600860205280600052604060002060009150905080600001549080600101805461095290612c0a565b80601f016020809104026020016040519081016040528092919081815260200182805461097e90612c0a565b80156109cb5780601f106109a0576101008083540402835291602001916109cb565b820191906000526020600020905b8154815290600101906020018083116109ae57829003601f168201915b5050505050908060020160009054906101000a900460ff16905083565b6109f96109f36113e9565b83611536565b610a38576040517f08c379a0000000000000000000000000000000000000000000000000000000008152600401610a2f90613029565b60405180910390fd5b6001600a6000838152602001908152602001600020600001541015610a92576040517f08c379a0000000000000000000000000000000000000000000000000000000008152600401610a8990613095565b60405180910390fd5b8060096000848152602001908152602001600020600101819055505050565b610ac2610abc6113e9565b82611536565b610b01576040517f08c379a0000000000000000000000000000000000000000000000000000000008152600401610af890613127565b60405180910390fd5b610b0c8383836115cb565b505050565b6000610b1b6114aa565b6000610b276007611528565b9050610b33600761131e565b60405180606001604052808281526020018481526020016001151581525060086000838152602001908152602001600020600082015181600001556020820151816001019081610b839190612f0b565b5060408201518160020160006101000a81548160ff02191690831515021790555090505080915050919050565b610bcb83838360405180602001604052806000815250610e90565b505050565b600080610bdc836118c4565b9050600073ffffffffffffffffffffffffffffffffffffffff168173ffffffffffffffffffffffffffffffffffffffff1603610c4d576040517f08c379a0000000000000000000000000000000000000000000000000000000008152600401610c4490613193565b60405180910390fd5b80915050919050565b606060008060096000858152602001908152602001600020905080600001816001015481805480602002602001604051908101604052809291908181526020018280548015610cc457602002820191906000526020600020905b815481526020019060010190808311610cb0575b505050505091509250925050915091565b60008073ffffffffffffffffffffffffffffffffffffffff168273ffffffffffffffffffffffffffffffffffffffff1603610d45576040517f08c379a0000000000000000000000000000000000000000000000000000000008152600401610d3c90613225565b60405180910390fd5b600360008373ffffffffffffffffffffffffffffffffffffffff1673ffffffffffffffffffffffffffffffffffffffff168152602001908152602001600020549050919050565b610d946114aa565b610d9e6000611901565b565b6000600660009054906101000a900473ffffffffffffffffffffffffffffffffffffffff16905090565b606060018054610dd990612c0a565b80601f0160208091040260200160405190810160405280929190818152602001828054610e0590612c0a565b8015610e525780601f10610e2757610100808354040283529160200191610e52565b820191906000526020600020905b815481529060010190602001808311610e3557829003601f168201915b5050505050905090565b610e6e610e676113e9565b83836119c7565b5050565b60096020528060005260406000206000915090508060010154905081565b610ea1610e9b6113e9565b83611536565b610ee0576040517f08c379a0000000000000000000000000000000000000000000000000000000008152600401610ed790613127565b60405180910390fd5b610eec84848484611b33565b50505050565b6060610efd82611b8f565b610f3c576040517f08c379a0000000000000000000000000000000000000000000000000000000008152600401610f33906132b7565b60405180910390fd5b60006009600084815260200190815260200160002090506000604051806060016040528060248152602001613c6a6024913990506000604051806080016040528060508152602001613c8e60509139905080600a600085600101548152602001908152602001600020600101604051602001610fb99291906133e2565b604051602081830303815290604052905060005b836000018054905081101561109a57600060086000866000018481548110610ff857610ff7613411565b5b906000526020600020015481526020019081526020016000209050826110218260000154611bd0565b8260010160405160200161103793929190613524565b60405160208183030381529060405292506001856000018054905061105c91906135a5565b82101561108657826040516020016110749190613625565b60405160208183030381529060405292505b50808061109290613647565b915050610fcd565b50806040516020016110ac91906136db565b604051602081830303815290604052905081816040516020016110d09291906136fd565b6040516020818303038152906040529350505050919050565b6000600560008473ffffffffffffffffffffffffffffffffffffffff1673ffffffffffffffffffffffffffffffffffffffff16815260200190815260200160002060008373ffffffffffffffffffffffffffffffffffffffff1673ffffffffffffffffffffffffffffffffffffffff16815260200190815260200160002060009054906101000a900460ff16905092915050565b6000600a600083815260200190815260200160002060020160009054906101000a900460ff166111e2576040517f08c379a00000000000000000000000000000000000000000000000000000000081526004016111d990613095565b60405180910390fd5b60006111ee6007611528565b90506111fa600761131e565b60405180604001604052808581526020018481525060096000838152602001908152602001600020600082015181600001908051906020019061123e92919061223d565b50602082015181600101559050506112563382611c9e565b7f6555163c6b3b268d3c0de6db08e51fee28cb4546baef83f2581e14493855e5dd81858560405161128993929190613721565b60405180910390a18091505092915050565b6112a36114aa565b600073ffffffffffffffffffffffffffffffffffffffff168173ffffffffffffffffffffffffffffffffffffffff1603611312576040517f08c379a0000000000000000000000000000000000000000000000000000000008152600401611309906137d1565b60405180910390fd5b61131b81611901565b50565b6001816000016000828254019250508190555050565b60007f01ffc9a7000000000000000000000000000000000000000000000000000000007bffffffffffffffffffffffffffffffffffffffffffffffffffffffff1916827bffffffffffffffffffffffffffffffffffffffffffffffffffffffff1916149050919050565b6113a781611b8f565b6113e6576040517f08c379a00000000000000000000000000000000000000000000000000000000081526004016113dd90613193565b60405180910390fd5b50565b600033905090565b816004600083815260200190815260200160002060006101000a81548173ffffffffffffffffffffffffffffffffffffffff021916908373ffffffffffffffffffffffffffffffffffffffff160217905550808273ffffffffffffffffffffffffffffffffffffffff1661146483610bd0565b73ffffffffffffffffffffffffffffffffffffffff167f8c5be1e5ebec7d5bd14f71427d1e84f3dd0314c0f7b2291e5b200ac8c7c3b92560405160405180910390a45050565b6114b26113e9565b73ffffffffffffffffffffffffffffffffffffffff166114d0610da0565b73ffffffffffffffffffffffffffffffffffffffff1614611526576040517f08c379a000000000000000000000000000000000000000000000000000000000815260040161151d9061383d565b60405180910390fd5b565b600081600001549050919050565b60008061154283610bd0565b90508073ffffffffffffffffffffffffffffffffffffffff168473ffffffffffffffffffffffffffffffffffffffff161480611584575061158381856110e9565b5b806115c257508373ffffffffffffffffffffffffffffffffffffffff166115aa8461072d565b73ffffffffffffffffffffffffffffffffffffffff16145b91505092915050565b8273ffffffffffffffffffffffffffffffffffffffff166115eb82610bd0565b73ffffffffffffffffffffffffffffffffffffffff1614611641576040517f08c379a0000000000000000000000000000000000000000000000000000000008152600401611638906138cf565b60405180910390fd5b600073ffffffffffffffffffffffffffffffffffffffff168273ffffffffffffffffffffffffffffffffffffffff16036116b0576040517f08c379a00000000000000000000000000000000000000000000000000000000081526004016116a790613961565b60405180910390fd5b6116bd8383836001611cbc565b8273ffffffffffffffffffffffffffffffffffffffff166116dd82610bd0565b73ffffffffffffffffffffffffffffffffffffffff1614611733576040517f08c379a000000000000000000000000000000000000000000000000000000000815260040161172a906138cf565b60405180910390fd5b6004600082815260200190815260200160002060006101000a81549073ffffffffffffffffffffffffffffffffffffffff02191690556001600360008573ffffffffffffffffffffffffffffffffffffffff1673ffffffffffffffffffffffffffffffffffffffff168152602001908152602001600020600082825403925050819055506001600360008473ffffffffffffffffffffffffffffffffffffffff1673ffffffffffffffffffffffffffffffffffffffff16815260200190815260200160002060008282540192505081905550816002600083815260200190815260200160002060006101000a81548173ffffffffffffffffffffffffffffffffffffffff021916908373ffffffffffffffffffffffffffffffffffffffff160217905550808273ffffffffffffffffffffffffffffffffffffffff168473ffffffffffffffffffffffffffffffffffffffff167fddf252ad1be2c89b69c2b068fc378daa952ba7f163c4a11628f55a4df523b3ef60405160405180910390a46118bf8383836001611cc2565b505050565b60006002600083815260200190815260200160002060009054906101000a900473ffffffffffffffffffffffffffffffffffffffff169050919050565b6000600660009054906101000a900473ffffffffffffffffffffffffffffffffffffffff16905081600660006101000a81548173ffffffffffffffffffffffffffffffffffffffff021916908373ffffffffffffffffffffffffffffffffffffffff1602179055508173ffffffffffffffffffffffffffffffffffffffff168173ffffffffffffffffffffffffffffffffffffffff167f8be0079c531659141344cd1fd0a4f28419497f9722a3daafe3b4186f6b6457e060405160405180910390a35050565b8173ffffffffffffffffffffffffffffffffffffffff168373ffffffffffffffffffffffffffffffffffffffff1603611a35576040517f08c379a0000000000000000000000000000000000000000000000000000000008152600401611a2c906139cd565b60405180910390fd5b80600560008573ffffffffffffffffffffffffffffffffffffffff1673ffffffffffffffffffffffffffffffffffffffff16815260200190815260200160002060008473ffffffffffffffffffffffffffffffffffffffff1673ffffffffffffffffffffffffffffffffffffffff16815260200190815260200160002060006101000a81548160ff0219169083151502179055508173ffffffffffffffffffffffffffffffffffffffff168373ffffffffffffffffffffffffffffffffffffffff167f17307eab39ab6107e8899845ad3d59bd9653f200f220920489ca2b5937696c3183604051611b26919061235b565b60405180910390a3505050565b611b3e8484846115cb565b611b4a84848484611cc8565b611b89576040517f08c379a0000000000000000000000000000000000000000000000000000000008152600401611b8090613a5f565b60405180910390fd5b50505050565b60008073ffffffffffffffffffffffffffffffffffffffff16611bb1836118c4565b73ffffffffffffffffffffffffffffffffffffffff1614159050919050565b606060006001611bdf84611e4f565b01905060008167ffffffffffffffff811115611bfe57611bfd6125aa565b5b6040519080825280601f01601f191660200182016040528015611c305781602001600182028036833780820191505090505b509050600082602001820190505b600115611c93578080600190039150507f3031323334353637383961626364656600000000000000000000000000000000600a86061a8153600a8581611c8757611c86613a7f565b5b04945060008503611c3e575b819350505050919050565b611cb8828260405180602001604052806000815250611fa2565b5050565b50505050565b50505050565b6000611ce98473ffffffffffffffffffffffffffffffffffffffff16611ffd565b15611e42578373ffffffffffffffffffffffffffffffffffffffff1663150b7a02611d126113e9565b8786866040518563ffffffff1660e01b8152600401611d349493929190613b03565b6020604051808303816000875af1925050508015611d7057506040513d601f19601f82011682018060405250810190611d6d9190613b64565b60015b611df2573d8060008114611da0576040519150601f19603f3d011682016040523d82523d6000602084013e611da5565b606091505b506000815103611dea576040517f08c379a0000000000000000000000000000000000000000000000000000000008152600401611de190613a5f565b60405180910390fd5b805181602001fd5b63150b7a0260e01b7bffffffffffffffffffffffffffffffffffffffffffffffffffffffff1916817bffffffffffffffffffffffffffffffffffffffffffffffffffffffff191614915050611e47565b600190505b949350505050565b600080600090507a184f03e93ff9f4daa797ed6e38ed64bf6a1f0100000000000000008310611ead577a184f03e93ff9f4daa797ed6e38ed64bf6a1f0100000000000000008381611ea357611ea2613a7f565b5b0492506040810190505b6d04ee2d6d415b85acef81000000008310611eea576d04ee2d6d415b85acef81000000008381611ee057611edf613a7f565b5b0492506020810190505b662386f26fc100008310611f1957662386f26fc100008381611f0f57611f0e613a7f565b5b0492506010810190505b6305f5e1008310611f42576305f5e1008381611f3857611f37613a7f565b5b0492506008810190505b6127108310611f67576127108381611f5d57611f5c613a7f565b5b0492506004810190505b60648310611f8a5760648381611f8057611f7f613a7f565b5b0492506002810190505b600a8310611f99576001810190505b80915050919050565b611fac8383612020565b611fb96000848484611cc8565b611ff8576040517f08c379a0000000000000000000000000000000000000000000000000000000008152600401611fef90613a5f565b60405180910390fd5b505050565b6000808273ffffffffffffffffffffffffffffffffffffffff163b119050919050565b600073ffffffffffffffffffffffffffffffffffffffff168273ffffffffffffffffffffffffffffffffffffffff160361208f576040517f08c379a000000000000000000000000000000000000000000000000000000000815260040161208690613bdd565b60405180910390fd5b61209881611b8f565b156120d8576040517f08c379a00000000000000000000000000000000000000000000000000000000081526004016120cf90613c49565b60405180910390fd5b6120e6600083836001611cbc565b6120ef81611b8f565b1561212f576040517f08c379a000000000000000000000000000000000000000000000000000000000815260040161212690613c49565b60405180910390fd5b6001600360008473ffffffffffffffffffffffffffffffffffffffff1673ffffffffffffffffffffffffffffffffffffffff16815260200190815260200160002060008282540192505081905550816002600083815260200190815260200160002060006101000a81548173ffffffffffffffffffffffffffffffffffffffff021916908373ffffffffffffffffffffffffffffffffffffffff160217905550808273ffffffffffffffffffffffffffffffffffffffff16600073ffffffffffffffffffffffffffffffffffffffff167fddf252ad1be2c89b69c2b068fc378daa952ba7f163c4a11628f55a4df523b3ef60405160405180910390a4612239600083836001611cc2565b5050565b828054828255906000526020600020908101928215612279579160200282015b8281111561227857825182559160200191906001019061225d565b5b509050612286919061228a565b5090565b5b808211156122a357600081600090555060010161228b565b5090565b6000604051905090565b600080fd5b600080fd5b60007fffffffff0000000000000000000000000000000000000000000000000000000082169050919050565b6122f0816122bb565b81146122fb57600080fd5b50565b60008135905061230d816122e7565b92915050565b600060208284031215612329576123286122b1565b5b6000612337848285016122fe565b91505092915050565b60008115159050919050565b61235581612340565b82525050565b6000602082019050612370600083018461234c565b92915050565b6000819050919050565b61238981612376565b811461239457600080fd5b50565b6000813590506123a681612380565b92915050565b6000602082840312156123c2576123c16122b1565b5b60006123d084828501612397565b91505092915050565b6123e281612376565b82525050565b600081519050919050565b600082825260208201905092915050565b60005b83811015612422578082015181840152602081019050612407565b60008484015250505050565b6000601f19601f8301169050919050565b600061244a826123e8565b61245481856123f3565b9350612464818560208601612404565b61246d8161242e565b840191505092915050565b600060608201905061248d60008301866123d9565b818103602083015261249f818561243f565b90506124ae604083018461234c565b949350505050565b600060208201905081810360008301526124d0818461243f565b905092915050565b600073ffffffffffffffffffffffffffffffffffffffff82169050919050565b6000612503826124d8565b9050919050565b612513816124f8565b82525050565b600060208201905061252e600083018461250a565b92915050565b61253d816124f8565b811461254857600080fd5b50565b60008135905061255a81612534565b92915050565b60008060408385031215612577576125766122b1565b5b60006125858582860161254b565b925050602061259685828601612397565b9150509250929050565b600080fd5b600080fd5b7f4e487b7100000000000000000000000000000000000000000000000000000000600052604160045260246000fd5b6125e28261242e565b810181811067ffffffffffffffff82111715612601576126006125aa565b5b80604052505050565b60006126146122a7565b905061262082826125d9565b919050565b600067ffffffffffffffff8211156126405761263f6125aa565b5b6126498261242e565b9050602081019050919050565b82818337600083830152505050565b600061267861267384612625565b61260a565b905082815260208101848484011115612694576126936125a5565b5b61269f848285612656565b509392505050565b600082601f8301126126bc576126bb6125a0565b5b81356126cc848260208601612665565b91505092915050565b6000602082840312156126eb576126ea6122b1565b5b600082013567ffffffffffffffff811115612709576127086122b6565b5b612715848285016126a7565b91505092915050565b600060208201905061273360008301846123d9565b92915050565b600080604083850312156127505761274f6122b1565b5b600061275e85828601612397565b925050602061276f85828601612397565b9150509250929050565b600080600060608486031215612792576127916122b1565b5b60006127a08682870161254b565b93505060206127b18682870161254b565b92505060406127c286828701612397565b9150509250925092565b600081519050919050565b600082825260208201905092915050565b6000819050602082019050919050565b61280181612376565b82525050565b600061281383836127f8565b60208301905092915050565b6000602082019050919050565b6000612837826127cc565b61284181856127d7565b935061284c836127e8565b8060005b8381101561287d5781516128648882612807565b975061286f8361281f565b925050600181019050612850565b5085935050505092915050565b600060408201905081810360008301526128a4818561282c565b90506128b360208301846123d9565b9392505050565b6000602082840312156128d0576128cf6122b1565b5b60006128de8482850161254b565b91505092915050565b6128f081612340565b81146128fb57600080fd5b50565b60008135905061290d816128e7565b92915050565b6000806040838503121561292a576129296122b1565b5b60006129388582860161254b565b9250506020612949858286016128fe565b9150509250929050565b600067ffffffffffffffff82111561296e5761296d6125aa565b5b6129778261242e565b9050602081019050919050565b600061299761299284612953565b61260a565b9050828152602081018484840111156129b3576129b26125a5565b5b6129be848285612656565b509392505050565b600082601f8301126129db576129da6125a0565b5b81356129eb848260208601612984565b91505092915050565b60008060008060808587031215612a0e57612a0d6122b1565b5b6000612a1c8782880161254b565b9450506020612a2d8782880161254b565b9350506040612a3e87828801612397565b925050606085013567ffffffffffffffff811115612a5f57612a5e6122b6565b5b612a6b878288016129c6565b91505092959194509250565b60008060408385031215612a8e57612a8d6122b1565b5b6000612a9c8582860161254b565b9250506020612aad8582860161254b565b9150509250929050565b600067ffffffffffffffff821115612ad257612ad16125aa565b5b602082029050602081019050919050565b600080fd5b6000612afb612af684612ab7565b61260a565b90508083825260208201905060208402830185811115612b1e57612b1d612ae3565b5b835b81811015612b475780612b338882612397565b845260208401935050602081019050612b20565b5050509392505050565b600082601f830112612b6657612b656125a0565b5b8135612b76848260208601612ae8565b91505092915050565b60008060408385031215612b9657612b956122b1565b5b600083013567ffffffffffffffff811115612bb457612bb36122b6565b5b612bc085828601612b51565b9250506020612bd185828601612397565b9150509250929050565b7f4e487b7100000000000000000000000000000000000000000000000000000000600052602260045260246000fd5b60006002820490506001821680612c2257607f821691505b602082108103612c3557612c34612bdb565b5b50919050565b7f4552433732313a20617070726f76616c20746f2063757272656e74206f776e6560008201527f7200000000000000000000000000000000000000000000000000000000000000602082015250565b6000612c976021836123f3565b9150612ca282612c3b565b604082019050919050565b60006020820190508181036000830152612cc681612c8a565b9050919050565b7f4552433732313a20617070726f76652063616c6c6572206973206e6f7420746f60008201527f6b656e206f776e6572206f7220617070726f76656420666f7220616c6c000000602082015250565b6000612d29603d836123f3565b9150612d3482612ccd565b604082019050919050565b60006020820190508181036000830152612d5881612d1c565b9050919050565b60008190508160005260206000209050919050565b60006020601f8301049050919050565b600082821b905092915050565b600060088302612dc17fffffffffffffffffffffffffffffffffffffffffffffffffffffffffffffffff82612d84565b612dcb8683612d84565b95508019841693508086168417925050509392505050565b6000819050919050565b6000612e08612e03612dfe84612376565b612de3565b612376565b9050919050565b6000819050919050565b612e2283612ded565b612e36612e2e82612e0f565b848454612d91565b825550505050565b600090565b612e4b612e3e565b612e56818484612e19565b505050565b5b81811015612e7a57612e6f600082612e43565b600181019050612e5c565b5050565b601f821115612ebf57612e9081612d5f565b612e9984612d74565b81016020851015612ea8578190505b612ebc612eb485612d74565b830182612e5b565b50505b505050565b600082821c905092915050565b6000612ee260001984600802612ec4565b1980831691505092915050565b6000612efb8383612ed1565b9150826002028217905092915050565b612f14826123e8565b67ffffffffffffffff811115612f2d57612f2c6125aa565b5b612f378254612c0a565b612f42828285612e7e565b600060209050601f831160018114612f755760008415612f63578287015190505b612f6d8582612eef565b865550612fd5565b601f198416612f8386612d5f565b60005b82811015612fab57848901518255600182019150602085019450602081019050612f86565b86831015612fc85784890151612fc4601f891682612ed1565b8355505b6001600288020188555050505b505050505050565b7f4e6f74206f776e6572206e6f7220617070726f76656400000000000000000000600082015250565b60006130136016836123f3565b915061301e82612fdd565b602082019050919050565b6000602082019050818103600083015261304281613006565b9050919050565b7f496e76616c6964206261636b67726f756e642049440000000000000000000000600082015250565b600061307f6015836123f3565b915061308a82613049565b602082019050919050565b600060208201905081810360008301526130ae81613072565b9050919050565b7f4552433732313a2063616c6c6572206973206e6f7420746f6b656e206f776e6560008201527f72206f7220617070726f76656400000000000000000000000000000000000000602082015250565b6000613111602d836123f3565b915061311c826130b5565b604082019050919050565b6000602082019050818103600083015261314081613104565b9050919050565b7f4552433732313a20696e76616c696420746f6b656e2049440000000000000000600082015250565b600061317d6018836123f3565b915061318882613147565b602082019050919050565b600060208201905081810360008301526131ac81613170565b9050919050565b7f4552433732313a2061646472657373207a65726f206973206e6f74206120766160008201527f6c6964206f776e65720000000000000000000000000000000000000000000000602082015250565b600061320f6029836123f3565b915061321a826131b3565b604082019050919050565b6000602082019050818103600083015261323e81613202565b9050919050565b7f4552433732314d657461646174613a2055524920717565727920666f72206e6f60008201527f6e6578697374656e7420746f6b656e0000000000000000000000000000000000602082015250565b60006132a1602f836123f3565b91506132ac82613245565b604082019050919050565b600060208201905081810360008301526132d081613294565b9050919050565b600081905092915050565b60006132ed826123e8565b6132f781856132d7565b9350613307818560208601612404565b80840191505092915050565b6000815461332081612c0a565b61332a81866132d7565b94506001821660008114613345576001811461335a5761338d565b60ff198316865281151582028601935061338d565b61336385612d5f565b60005b8381101561338557815481890152600182019150602081019050613366565b838801955050505b50505092915050565b7f222c2022636f6d706f6e656e7473223a5b000000000000000000000000000000600082015250565b60006133cc6011836132d7565b91506133d782613396565b601182019050919050565b60006133ee82856132e2565b91506133fa8284613313565b9150613405826133bf565b91508190509392505050565b7f4e487b7100000000000000000000000000000000000000000000000000000000600052603260045260246000fd5b7f7b2022636f6d706f6e656e745f6964223a000000000000000000000000000000600082015250565b60006134766011836132d7565b915061348182613440565b601182019050919050565b7f2c2022757269223a220000000000000000000000000000000000000000000000600082015250565b60006134c26009836132d7565b91506134cd8261348c565b600982019050919050565b7f227d000000000000000000000000000000000000000000000000000000000000600082015250565b600061350e6002836132d7565b9150613519826134d8565b600282019050919050565b600061353082866132e2565b915061353b82613469565b915061354782856132e2565b9150613552826134b5565b915061355e8284613313565b915061356982613501565b9150819050949350505050565b7f4e487b7100000000000000000000000000000000000000000000000000000000600052601160045260246000fd5b60006135b082612376565b91506135bb83612376565b92508282039050818111156135d3576135d2613576565b5b92915050565b7f2c00000000000000000000000000000000000000000000000000000000000000600082015250565b600061360f6001836132d7565b915061361a826135d9565b600182019050919050565b600061363182846132e2565b915061363c82613602565b915081905092915050565b600061365282612376565b91507fffffffffffffffffffffffffffffffffffffffffffffffffffffffffffffffff820361368457613683613576565b5b600182019050919050565b7f5d7d000000000000000000000000000000000000000000000000000000000000600082015250565b60006136c56002836132d7565b91506136d08261368f565b600282019050919050565b60006136e782846132e2565b91506136f2826136b8565b915081905092915050565b600061370982856132e2565b915061371582846132e2565b91508190509392505050565b600060608201905061373660008301866123d9565b8181036020830152613748818561282c565b905061375760408301846123d9565b949350505050565b7f4f776e61626c653a206e6577206f776e657220697320746865207a65726f206160008201527f6464726573730000000000000000000000000000000000000000000000000000602082015250565b60006137bb6026836123f3565b91506137c68261375f565b604082019050919050565b600060208201905081810360008301526137ea816137ae565b9050919050565b7f4f776e61626c653a2063616c6c6572206973206e6f7420746865206f776e6572600082015250565b60006138276020836123f3565b9150613832826137f1565b602082019050919050565b600060208201905081810360008301526138568161381a565b9050919050565b7f4552433732313a207472616e736665722066726f6d20696e636f72726563742060008201527f6f776e6572000000000000000000000000000000000000000000000000000000602082015250565b60006138b96025836123f3565b91506138c48261385d565b604082019050919050565b600060208201905081810360008301526138e8816138ac565b9050919050565b7f4552433732313a207472616e7366657220746f20746865207a65726f2061646460008201527f7265737300000000000000000000000000000000000000000000000000000000602082015250565b600061394b6024836123f3565b9150613956826138ef565b604082019050919050565b6000602082019050818103600083015261397a8161393e565b9050919050565b7f4552433732313a20617070726f766520746f2063616c6c657200000000000000600082015250565b60006139b76019836123f3565b91506139c282613981565b602082019050919050565b600060208201905081810360008301526139e6816139aa565b9050919050565b7f4552433732313a207472616e7366657220746f206e6f6e20455243373231526560008201527f63656976657220696d706c656d656e7465720000000000000000000000000000602082015250565b6000613a496032836123f3565b9150613a54826139ed565b604082019050919050565b60006020820190508181036000830152613a7881613a3c565b9050919050565b7f4e487b7100000000000000000000000000000000000000000000000000000000600052601260045260246000fd5b600081519050919050565b600082825260208201905092915050565b6000613ad582613aae565b613adf8185613ab9565b9350613aef818560208601612404565b613af88161242e565b840191505092915050565b6000608082019050613b18600083018761250a565b613b25602083018661250a565b613b3260408301856123d9565b8181036060830152613b448184613aca565b905095945050505050565b600081519050613b5e816122e7565b92915050565b600060208284031215613b7a57613b796122b1565b5b6000613b8884828501613b4f565b91505092915050565b7f4552433732313a206d696e7420746f20746865207a65726f2061646472657373600082015250565b6000613bc76020836123f3565b9150613bd282613b91565b602082019050919050565b60006020820190508181036000830152613bf681613bba565b9050919050565b7f4552433732313a20746f6b656e20616c7265616479206d696e74656400000000600082015250565b6000613c33601c836123f3565b9150613c3e82613bfd565b602082019050919050565b60006020820190508181036000830152613c6281613c26565b905091905056fe646174613a6170706c69636174696f6e2f6a736f6e3b636861727365743d7574662d382c7b226e616d65223a22436f6d706f73656420496d616765222c20226465736372697074696f6e223a224120636f6d706f7361626c6520696d616765222c20226261636b67726f756e645f757269223a22a26469706673582212203edf667305394adc181555894e1d7de2a59d8d82dae8c1bc1a693b8bcc2e4be864736f6c63430008120033",
  "linkReferences": {},
  "deployedLinkReferences": {}
}